:020000040040BA
:1000000030350020491F40001120400011204000E1
:10001000112040001120400011204000000000008D
:10002000000000000000000000000000112040005F
:10003000112040000000000011204000112040006D
:1000400011204000112040001120400011204000EC
:10005000112040001120400011204000000000004D
:10006000112040001120400000000000111140004C
:10007000291140000000000011204000290F40001D
:10008000000000000000000011204000112040008E
:10009000112040001120400011204000112040009C
:1000A000112040001120400000000000000000006E
:1000B00000000000112040001120400011204000ED
:1000C00011204000112040001120400010B5054CC7
:1000D000237833B9044B13B10448AFF300800123F4
:1000E000237010BD3804002000000000A033400041
:1000F000084B10B51BB108490848AFF30080084809
:10010000036803B910BD074B002BFBD0BDE81040BE
:10011000184700BF000000003C040020A03340004E
:10012000A03340000000000080B483B000AF7860CE
:100130007B6808221A607B6820221A607B68042290
:100140001A6000BF0C37BD4680BC704780B584B0D4
:1001500000AF786039600023FB607B684FF0FF32AE
:100160009A627B681B6A78680E4B984778680E4BDA
:1001700098473B6859683B681B681A4678680B4B80
:1001800098470346012B01D10123FB603B685B7A52
:10019000012B02D17B6840221A60FB681846103799
:1001A000BD4680BDE904400029014000B101400086
:1001B00080B489B000AFF860B9607A600023FB6159
:1001C000BB68344A934201D901235DE0BB68324ADF
:1001D000934237D97B68314AA2FB03239B0B043B34
:1001E0007B61BA682E4B13449B007A68B2FBF3F331
:1001F000043B3B6105E0FB690133FB617B695B0804
:100200007B617B69FF2B09D9FB69062BF3D905E0DC
:10021000FB690133FB613B695B083B613B69FF2B79
:1002200002D9FB69062BF3D97B69DAB23B691B0261
:100230009BB21A43FB691B0403F4E0231A43FB68D7
:100240001A6120E0BB685B007A68B2FBF3F3043B01
:10025000BB6105E0FB690133FB61BB695B08BB6106
:10026000BB69FF2B02D9FB69062BF3D9BB69DAB254
:10027000BB691B029BB21A43FB691B0403F4E02316
:100280001A43FB681A61002318462437BD4680BC18
:10029000704700BF801A060000DC0500F1197605E2
:1002A0000012FD3F80B485B000AF786039603B68D4
:1002B000002B01D100231DE07B681B78FB603B68AD
:1002C000012B09DDFB681B02FB607B6801331B7897
:1002D0001A46FB681343FB603B68022B09DDFB6891
:1002E0001B02FB607B6802331B781A46FB681343D2
:1002F000FB60FB6818461437BD4680BC704700BFE2
:1003000080B588B000AF786039603B68DB68FB611E
:100310003B689B68BB610023FB7547F230533B6130
:10032000FB69002B01D1012369E07B6800225A6040
:100330003B681B7C1B0403F4FE023B685B681B02EA
:1003400003F44073134343F480527B685A607B6824
:100350000022DA603A683B685B68194610462A4B0F
:10036000984702467B68DA60FB69012B05D17B6800
:1003700003221A600123FB7534E07B6801221A60B6
:100380000023FB752EE07B681B6AFB60FB6803F4AF
:100390008073002B01D0052331E03B695A1E3A617E
:1003A000002B01D109232AE0FB69012B07D1FB7D3A
:1003B000002B04D17B6802221A600123FB75FB68C5
:1003C00003F00203002B00D10CE0BB695A1CBA6198
:1003D0007A68126BD2B21A70FB69013BFB6147F27B
:1003E00030533B61FB69002BCDD100BF7B681B6A9A
:1003F00003F00103002BF9D07B681B6A0023184629
:100400002037BD4680BD00BFA502400080B586B044
:1004100000AF786039603B68DB687B613B689B6854
:100420003B617B69002B01D1012356E07B680022F0
:100430005A603B681B7C1B0403F4FE023B685B684C
:100440001B0203F440731A437B685A607B680022E6
:10045000DA603A683B685B6819461046214B98475A
:1004600002467B68DA6019E07B681B6AFB60FB6808
:1004700003F48073002B01D005232EE0FB6803F00A
:100480000403002B00D109E03B695A1C3A611B7838
:100490001A467B685A637B69013B7B617B69002B51
:1004A000E2D17B681B6AFB60FB6803F48073002B5E
:1004B00001D0052311E0FB6803F00403002B00D1F9
:1004C000EFE700BF7B6802221A6000BF7B681B6AEF
:1004D00003F00103002BF9D0002318461837BD465E
:1004E00080BD00BFA502400080B483B000AF78603B
:1004F0007B6880221A607B681B6B00BF0C37BD468F
:1005000080BC704780B489B000AFF860B9607A6091
:10051000BB681A017B689A4202D81023FB6101E094
:100520000823FB617B68DA00FB69B96801FB03F310
:100530005B081A44FB69B96801FB03F3B2FBF3F3F0
:10054000BB61BB69DB087B61BB6903F007033B61EF
:100550007B69002B03D07B69B3F5803F01D3012376
:100560000FE0FB69082B05D1FB685B6843F40022B0
:10057000FB685A603B691A047B691A43FB681A627C
:10058000002318462437BD4680BC704780B582B032
:1005900000AF786078680F4B98477B6800225A60FC
:1005A0007B6800225A627B6800229A6278680A4B54
:1005B00098477868094B98477868094B9847786856
:1005C000084B98477868084B984700BF0837BD46E6
:1005D00080BD00BF11084000E1064000290740002F
:1005E00075074000AD0740009107400080B584B01A
:1005F00000AFF860B9607A60F8681A4B98471A4BF8
:1006000000221A60BB68002B09D0BB681B687A689F
:100610001946F868154B98470346002B01D0012373
:100620001BE0BB685A68BB689B681A43BB681B69C0
:100630001A43BB68DB681A430B4B1B6813430A4A17
:100640001360094B1B68084A1360FB685A68064B25
:100650001B681A43FB685A60002318461037BD46D2
:1006600080BD00BF8D0540005404002005054000FA
:1006700080B584B000AFF860B9607A607A68B96814
:10068000F8680A4B98470346002B01D0012308E085
:10069000FB685B6823F00F0343F00102FB685A60BC
:1006A000002318461037BD4680BD00BFED05400051
:1006B00080B483B000AF78607B6840221A6000BFCE
:1006C0000C37BD4680BC704780B483B000AF786003
:1006D0007B6880221A6000BF0C37BD4680BC704723
:1006E00080B483B000AF78607B6888221A6000BF56
:1006F0000C37BD4680BC704780B483B000AF7860D3
:100700007B6810221A6000BF0C37BD4680BC704762
:1007100080B483B000AF78607B6820221A6000BF8D
:100720000C37BD4680BC704780B483B000AF7860A2
:100730007B6824221A6000BF0C37BD4680BC70471E
:1007400080B483B000AF786039607B683A68DA6063
:1007500000BF0C37BD4680BC704700BF80B483B07B
:1007600000AF78607B685B6918460C37BD4680BC7B
:10077000704700BF80B483B000AF78607B684FF4EF
:1007800080721A6000BF0C37BD4680BC704700BF46
:1007900080B483B000AF78607B684FF400321A6099
:1007A00000BF0C37BD4680BC704700BF80B483B02B
:1007B00000AF78607B684FF400221A6000BF0C37EE
:1007C000BD4680BC704700BF80B485B000AF786084
:1007D0000023FB607B680A4A934203D1094BFB600C
:1007E000FB6808E07B68084A934203D1074BFB6033
:1007F000FB6800E0FB6818461437BD4680BC7047B4
:10080000004002400041024000800240008102405E
:1008100080B483B000AF78607B68044AC3F8E420FA
:1008200000BF0C37BD4680BC704700BF0041535528
:1008300080B58AB000AFB9607B600346FB73134696
:10084000BB730023FB830023BB8300237B83002334
:100850003B830023FB840023FB75002387F82530AE
:10086000002387F82430002387F82330002387F8FB
:100870002230002387F82130BB681B78FA7B9A422C
:1008800004D0BB681B78002B40F0FB81BB7B013B95
:10089000BA6813441B781B021AB2BB7B023BB968CF
:1008A0000B441B781BB213431BB2BB83BB7B023BC5
:1008B000DBB21946B868904B98470346FB83FA8B26
:1008C000BB8B9A4240F0E081BB685B78FB75FB7D97
:1008D000062B00F0A980102B00F01481032B40F0B0
:1008E000C281BB6804331B781B021AB2BB68053394
:1008F0001B781BB213431BB23B833B8B002B00F0D6
:1009000088803B8B7D2B00F28480BB6802331B7890
:100910001B021AB2BB6803331B781BB213431BB212
:100920007B837A8B3B8B13440C2B68DC7B68FA7BD4
:100930001A707B68013303221A707B6802333A8B8A
:10094000D2B25200D2B21A70032387F822300023A9
:1009500087F8213028E097F822305A1C87F82220A7
:100960001A467B681344798B97F821200A4463491F
:1009700031F81220120A92B2D2B21A7097F82230CD
:100980005A1C87F822201A467B681344798B97F803
:1009900021200A44594931F81220D2B21A7097F82E
:1009A0002130013387F8213097F821309BB23A8B00
:1009B0009A42D0D897F82230194678684E4B98471B
:1009C0000346FB8397F822305A1C87F822201A46E8
:1009D0007B681344FA8BD2B21A7097F822305A1CF3
:1009E00087F822201A467B681344FA8B120A92B2C7
:1009F000D2B21A703B6B97F822201A7013E00123D1
:100A000087F82530832387F82430022387F82330A2
:100A100009E0012387F82530832387F82430032356
:100A200087F823302CE12BE1BB6804331B781B02D1
:100A30001AB2BB6805331B781BB213431BB2FB848D
:100A4000BB6802331B781B021AB2BB6803331B78E6
:100A50001BB213431BB27B837B8B0C2B41D87B8B4C
:100A60002649FA8C21F813207B68FA7B1A707B6880
:100A7000013306221A707B680233BA6892781A70C2
:100A80007B680333BA68D2781A707B680433BA681B
:100A900012791A707B680533BA6852791A70062188
:100AA0007868154B98470346FB837B680633FA8BBF
:100AB000D2B21A707B680733FA8B120A92B2D2B2A2
:100AC0001A703B6B08221A700D4B1B68002B00F04C
:100AD000D6800B4B1B687A8BD1B20122074898470E
:100AE000CDE0012387F82530862387F824300223C0
:100AF00087F82330C3E000BFE90C40005804002011
:100B0000E8040020BB6804331B781B021AB2BB68E0
:100B100005331B781BB213431BB23B833B8B002B6B
:100B200000F096803B8B7D2B00F29280BB680233F5
:100B30001B781B021AB2BB6803331B781BB213432A
:100B40001BB27B837A8B3B8B13440C2B76DC7B684C
:100B5000FA7B1A707B68013310221A707B680233AB
:100B6000BA6892781A707B680333BA68D2781A70C0
:100B70007B680433BA6812791A707B680533BA68E7
:100B800052791A7006217868544B98470346FB83C4
:100B90007B680633FA8BD2B21A707B680733FA8B04
:100BA000120A92B2D2B21A703B6B08221A70BB685A
:100BB00006331B789BB207333B83002387F8213031
:100BC000072387F822302AE097F8223003F0010348
:100BD000DBB2002B08D097F82230BA6813441B7898
:100BE0009BB21B02FB8415E097F82230BA681344CD
:100BF0001B789AB2FB8C1343FB847A8B97F82130D5
:100C000013443749FA8C21F8132097F82130013327
:100C100087F8213097F82230013387F8223097F88F
:100C200022309BB23A8B9A42CED82E4B1B687A8BDD
:100C3000D1B297F821202A48984713E0012387F87A
:100C40002530902387F82430022387F8233009E0E9
:100C5000012387F82530902387F82430032387F871
:100C600023300DE00CE0FB7D63F07F0387F8243038
:100C7000012387F82330012387F8253000E000BFE7
:100C800002E03B6B00221A7097F82530002B21D030
:100C90007B68FA7B1A707B68013397F824201A70FE
:100CA0007B68023397F823201A70032178680B4B76
:100CB00098470346FB837B680333FA8BD2B21A70E2
:100CC0007B680433FA8B120A92B2D2B21A703B6B71
:100CD00005221A7000BF2837BD4680BDE90C4000D0
:100CE00058040020E804002080B485B000AF78608C
:100CF0000B46FB704FF6FF73FB8100237B730023D1
:100D00003B7300237B7326E07B7B7A6813441B785C
:100D10009AB2FB895340FB8100233B7315E0FB89AA
:100D200003F00103002B0AD0FB895B08FB81FB89E0
:100D300083F4BF4383F07E03DB43FB8102E0FB8946
:100D40005B08FB813B7B01333B733B7B072BE6D985
:100D50007B7B01337B737A7BFB789A42D4D3FB890C
:100D600018461437BD4680BC704700BF80B588B0B8
:100D700000AF78600B46FB7068233B7700233B6134
:100D8000FB1C7B610123BB6107F10C0319467868EA
:100D9000024B984700BF2037BD4680BD0D04400080
:100DA00080B588B000AF7860396068233B77002356
:100DB0003B613B687B610323BB6107F10C03194670
:100DC0007868034B984700BF2037BD4680BD00BF01
:100DD0000103400080B483B000AF78607B68072BCC
:100DE00025D801A252F823F0090E40000F0E400052
:100DF000150E40001B0E40001F0E4000230E400049
:100E0000270E40002B0E40004FF4FA4310E04FF441
:100E100000430DE04FF400430AE0084B08E0084BA4
:100E200006E0084B04E0074B02E0064B00E000231D
:100E300018460C37BD4680BC704700BF00093D0016
:100E400000127A00001BB70080B500AF0620044BEB
:100E50009847024613469B0013449B00184680BDEA
:100E6000D50D400080B500AF024B984703465B08A4
:100E7000184680BD490E400080B582B000AF786052
:100E80007868034B984700BF0837BD4680BD00BF58
:100E9000C11D4000B0B586B000AF184B3C461D46A2
:100EA0000FCD0FC495E8030084E803000F20144B16
:100EB0009847144B984702463B4619461248134B35
:100EC00098474FF0FF311048114B98470E48114B8F
:100ED00098470D48104B98470B48104B98470246CF
:100EE0000F4B1A600E4B1B6840F2011118460D4B58
:100EF000984700BF1837BD46B0BD00BF543340000F
:100F0000790E4000650E40000080024071064000EE
:100F100041074000B1064000F9064000C907400003
:100F2000EC0400202115400080B582B000AF0D48D0
:100F30000D4B984778607B6803F00803002B04D0C2
:100F400008210848094B984708E07B6803F0100324
:100F5000002B03D010210348044B984700BF0837EB
:100F6000BD4680BD008002405D0740004107400053
:100F700080B582B000AF78600B467B80084A7B6802
:100F800013607B88064A5360064B1B6800220449A5
:100F90001846054B984700BF0837BD4680BD00BFC7
:100FA000F0040020EC0400209914400080B582B0C9
:100FB00000AF78600B467B80084A7B6813607B88B3
:100FC000064A5360064B1B68002204491846054B2D
:100FD000984700BF0837BD4680BD00BFF004002021
:100FE000EC040020DD14400080B582B000AF232364
:100FF0007B60094B1B681846084B984702467B6884
:101000009B1A7B607B68232B01D900237B607B6864
:1010100018460837BD4680BDEC040020611540002D
:1010200080B500AF0348044B9847034603F0100314
:10103000184680BD008002405D07400080B584B046
:1010400000AF7860396078682C4B9847F860786812
:101050002B4B98470246FB681340FB60FB68002B54
:101060003CD00023BB6034E0264ABB681B0113441C
:101070001A683B689A4226D1224ABB681B01134476
:1010800004331A68FB681340002B1CD01D4ABB6850
:101090001B0113440C331B681A49BA6812010A4435
:1010A00010681849BA6812010A44043212681146DD
:1010B0009847144ABB681B01134404331B68DB4385
:1010C000FA681340FB60BB680133BB60BB68062B4A
:1010D00003D8FB68002BC7D100E000BF0A4B1B6898
:1010E000002B07D0094B1B68002B03D0074B1B6854
:1010F0007868984700BF1037BD4680BDB5174000DF
:10110000CD17400070040020F8040020E004002007
:1011100080B500AF0B210248024B984700BF80BD4D
:10112000000E0E403D10400080B500AF0C2102487B
:10113000024B984700BF80BD00100E403D1040009C
:1011400080B582B000AF78607B68072B31D801A2F0
:1011500052F823F0B1114000751140007D1140009C
:10116000851140008D114000951140009D114000F7
:10117000A71140000020114B98471AE001200F4BA7
:10118000984716E000200E4B984712E010200C4BB9
:1011900098470EE020200A4B98470AE03E210020A5
:1011A000084B984705E03E210120064B984700E098
:1011B00000BF00BF0837BD4680BD00BFF51B400023
:1011C000611C4000D11C400080B582B000AF786047
:1011D0007B68072B26D801A252F823F0FD114000AE
:1011E000011240000112400013124000131240008F
:1011F000131240001312400013124000012312E0AA
:101200000B4B98470346002B14BF01230023DBB28E
:1012100009E0084B98470346002B14BF0123002325
:10122000DBB200E0002318460837BD4680BD00BF92
:101230002D1C4000491D400080B483B000AF786091
:101240007B68072B25D801A252F823F06D124000CD
:1012500073124000791240007F1240008312400058
:10126000871240008B1240008F1240004FF4FA4367
:1012700010E04FF400430DE04FF400430AE0084B48
:1012800008E0084B06E0084B04E0074B02E0064B81
:1012900000E0002318460C37BD4680BC704700BFF5
:1012A00000093D0000127A00001BB70080B582B033
:1012B00000AF0346FB7100BFFB791846054B98470A
:1012C000034683F00103DBB2002BF5D100BF0837E2
:1012D000BD4680BDC911400080B586B000AFF86042
:1012E0007A603B600B46FB72FB7A18460D4B9847C1
:1012F00002467B68B2FBF3F37B617B693A6802FBD1
:1013000003F37B613B68013B1A04074B13407A6887
:10131000D2B2134343F47C52FB681A6000BF183703
:10132000BD4680BD391240000000FF0780B582B085
:1013300000AF786039603B68002B08D1094B9847B3
:10134000094A7B681B6843F00053936205E0074B32
:101350009847054A7B681B68D36200BF0837BD46C3
:1013600080BD00BF611D400000040E40911D400083
:1013700080B582B000AF78607B68002B03D1054B4D
:101380009847034602E0044B98470346184608373F
:10139000BD4680BD791D4000A91D400080B582B0CA
:1013A00000AF0346FB71FB79033B042B08D8FB79A4
:1013B0001846064B9847FB791846054B984700E0BE
:1013C00000BF00BF0837BD4680BD00BF41114000CF
:1013D000AD12400080B582B000AF786000BF786881
:1013E000044B98470346002BF9D0002318460837D2
:1013F000BD4680BD7113400080B500AF0620044B90
:101400009847024613469B0013449B00184680BD34
:101410003912400080B500AF024B984703465B0885
:10142000184680BDF913400090B583B000AF114855
:10143000114B98470620114B9847381D1423012261
:1014400006210F4CA0473B1D002118460D4B984725
:1014500000200D4B984710200C4B98470C4B984799
:101460000C4B984703461846034B984700BF0C3770
:10147000BD4690BD000E2707B52140009D134000DA
:10148000D91240002D134000D5134000751B4000B9
:10149000192040001514400080B485B000AFF860FA
:1014A000B9607A60BB68002B07D0BB681A68FB681C
:1014B0009A60BB685A68FB68DA607B68002B07D0CB
:1014C0007B681A68FB689A617B685A68FB68DA6116
:1014D00000BF1437BD4680BC704700BF80B485B0E4
:1014E00000AFF860B9607A60BB68002B07D0BB68BA
:1014F0001A68FB681A60BB685A68FB685A607B68A8
:10150000002B07D07B681A68FB681A617B685A68F1
:10151000FB685A6100BF1437BD4680BC704700BFEE
:1015200080B483B000AF786039603A6840F201134C
:1015300013407A68136200BF0C37BD4680BC704709
:1015400080B483B000AF786039603A6840F202231B
:1015500013407A68136200BF0C37BD4680BC7047E9
:1015600080B483B000AF78607B685B6818460C3746
:10157000BD4680BC704700BF80B485B000AFF86046
:10158000B9607A607B68002B03D0FB68BA685A6642
:1015900002E0FB68BA681A6600BF1437BD4680BC1B
:1015A000704700BF80B487B000AFF860B9607A6060
:1015B000FB687A685A64BB68B3F1C05F4AD0B3F184
:1015C000C05F08D8B3F1006F16D0B3F1805F2CD0A4
:1015D000002B69D064E0B3F1205F65D0B3F1205FE8
:1015E00003D8B3F1005F4AD05AE0B3F1405F5BD05B
:1015F000B3F1605F58D053E0FB681B6F7B61FB6801
:101600001A6F7B68D9437B690B401A40FB681A67E5
:10161000FB685B6F7B61FB685A6F7B68D9437B69B2
:101620000B401A40FB685A673AE0FB681B6F7B610E
:101630007A687B691A43FB681A67FB685B6F7B619A
:10164000FB685A6F7B68D9437B690B401A40FB6883
:101650005A6725E0FB681B6F7B61FB681A6F7B682C
:10166000D9437B690B401A40FB681A67FB685B6FC4
:101670007B617A687B691A43FB685A6710E0FB68F4
:101680001B6F7B617A687B691A43FB681A67FB688A
:101690005B6F7B617A687B691A43FB685A6700BF9E
:1016A000FB687A685A6000E000BF1C37BD4680BC0A
:1016B000704700BF80B584B000AFF860B9607A6051
:1016C000B968F868194B98477B6803F001031A461C
:1016D000B968F868164B98477B6803F00A03002B3B
:1016E00003D0FB68BA681A6202E0FB68BA685A6203
:1016F0007B6803F00203002B04D0FB68BA68C3F8D0
:10170000802008E07B6803F00803002B03D0FB680F
:10171000BA68C3F88420FB68BA685A61FB68BA6883
:101720001A6000BF1037BD4680BD00BF991740004A
:101730007915400080B584B000AFF860B9607A6078
:101740003B60B968F868124B9847BA69B968F8689D
:10175000104B98473B68002B03D0FB68BA681A65AA
:1017600002E0FB68BA685A657B68002B03D0FB680F
:10177000BA681A6302E0FB68BA685A63FB68BA6821
:101780001A61FB68BA681A6000BF1037BD4680BD99
:10179000991740007915400080B483B000AF78609D
:1017A00039607B683A685A6400BF0C37BD4680BC1C
:1017B000704700BF80B483B000AF78607B68DB6C9B
:1017C00018460C37BD4680BC704700BF80B483B05C
:1017D00000AF78607B689B6C18460C37BD4680BCB8
:1017E000704700BF80B584B000AF78607868084B60
:1017F0009847F860FB68DA6B7B6803F01F0322FAF6
:1018000003F303F0010318461037BD4680BD00BF47
:10181000511B400080B584B000AF78607868084BF9
:101820009847F8607B6803F01F03012202FA03F374
:101830001A46FB681A6300BF1037BD4680BD00BF63
:10184000511B400080B584B000AF78607868084BC9
:101850009847F8607B6803F01F03012202FA03F344
:101860001A46FB685A6300BF1037BD4680BD00BFF3
:10187000511B400090B587B002AF7860396078683E
:10188000634B9847F8603B6803F0F043B3F1005FA7
:1018900067D0B3F1005F09D8B3F1805F2BD0B3F10B
:1018A000C05F43D0B3F1006F0AD0A9E0B3F1405F4D
:1018B0007ED0B3F1605F7BD0B3F1205F6CD09FE04E
:1018C0007B6803F01F03012202FA03F31A464FF06C
:1018D0000061F8684F4B98477B6803F01F030122B3
:1018E00002FA03F319463B6803F001031A46F8684D
:1018F000494B984786E07B6803F01F03012202FAF8
:1019000003F31A464FF08051F868424B98477B68C2
:1019100003F01F03012202FA03F319463B6803F0A8
:1019200001031A46F8683C4B98476BE07B6803F06C
:101930001F03012202FA03F31A464FF0C051F86860
:10194000344B98477B6803F01F03012202FA03F32C
:1019500019463B6803F001031A46F8682E4B984776
:1019600050E07B6803F01F03012202FA03F31A46DA
:101970004FF00051F868274B98477B6803F01F032E
:10198000012202FA03F319463B6803F001031A46E9
:10199000F868214B984735E07B6803F01F0301226C
:1019A00002FA03F33A681946F8681C4B984729E095
:1019B0007B6803F01F03012202FA03F319463B6818
:1019C00003F06053B3F1605F0CBF01230023DBB26F
:1019D0001A463B6803F00403002B14BF01230023C5
:1019E000DBB218463B6803F00103002B14BF012350
:1019F0000023DBB200930346F868094CA04701E0DE
:101A0000002300E0012318461437BD4690BD00BFF7
:101A1000511B4000A515400079154000B516400047
:101A20003517400090B587B002AFF860B9607A60B2
:101A30007B6803F0F043B3F1005F43D0B3F1005F84
:101A400009D8B3F1805F1FD0B3F1C05F2BD0B3F1E1
:101A5000006F0AD06DE0B3F1405F48D0B3F1605F32
:101A600045D0B3F1205F3CD063E0BA684FF000612D
:101A7000F868334B98477B6803F001031A46B9684E
:101A8000F868304B984756E0BA684FF08051F868D4
:101A90002B4B98477B6803F001031A46B968F86836
:101AA000284B984747E0BA684FF0C051F868244B7C
:101AB00098477B6803F001031A46B968F868214B20
:101AC000984738E0BA684FF00051F8681C4B9847C7
:101AD0007B6803F001031A46B968F868194B984708
:101AE00029E07A68B968F868174B984723E07B6863
:101AF00003F06053B3F1605F0CBF01230023DBB23E
:101B00001A467B6803F00403002B14BF0123002353
:101B1000DBB219467B6803F00103002B14BF0123DD
:101B20000023DBB200930B46B968F868074CA04766
:101B300001E0002300E0012318461437BD4690BDA4
:101B4000A515400079154000B51640003517400036
:101B500080B485B000AF78607B685B0903F5001343
:101B600003F207735B02FB60FB6818461437BD463F
:101B700080BC704780B485B000AF78601C491C4BB6
:101B80001B6B23F070027B6813430B634FF40063FD
:101B9000FB6007E0FB68002B01D1012323E0FB6819
:101BA000013BFB60124B9B6E03F00803002BF1D04E
:101BB0000F4A0F4B1B6B23F0030343F00203136325
:101BC0004FF40063FB6007E0FB68002B01D10123A9
:101BD00009E0FB68013BFB60054B9B6E03F00803CB
:101BE000002BF1D0002318461437BD4680BC704747
:101BF00000040E4080B483B000AF78607B68012B96
:101C000007D1084A074B9B6843F0254343F48013F0
:101C10009360044B044A1A6000BF0C37BD4680BC79
:101C2000704700BF10140E40080000A580B400AF3C
:101C3000094B5B6903F08003002B07D0074B9B6EB9
:101C400003F08003002B01D0012300E0002318469D
:101C5000BD4680BC704700BF10140E4000040E400B
:101C600080B483B000AF7860184A184B1B6A43F405
:101C70005C1343F00803136200BF144B9B6E03F424
:101C80000033002BF9D01149104B1B6A23F45C136D
:101C900023F070037A68134343F45C130B6200BFB4
:101CA0000A4B9B6E03F40033002BF9D0074A074B15
:101CB0001B6A23F09B7323F4803343F45C13136299
:101CC00000BF0C37BD4680BC704700BF00040E400B
:101CD00080B483B000AF786039607B68002B08D097
:101CE0001649164B1B6A164A1A40164B13430B62D1
:101CF0001EE01249114B1B6A23F45C1323F003030B
:101D00003A68120292B2134343F45C1343F00103A6
:101D10000B6200BF094B9B6E03F00103002BF9D04F
:101D2000064A064B1B6A43F09B7343F480331362ED
:101D300000BF0C37BD4680BC704700BF00040E409A
:101D4000FCFFC8FE0200370180B400AF034B9B6E5E
:101D500003F480331846BD4680BC704700040E4033
:101D600080B400AF034B4FF000529A6200BFBD46F3
:101D700080BC704700040E4080B400AF034B9B6EE4
:101D800003F002031846BD4680BC704700040E40B5
:101D900080B400AF034B0022DA6200BFBD4680BCB6
:101DA000704700BF00040E4080B400AF034B9B6E31
:101DB00003F004031846BD4680BC704700040E4083
:101DC00080B483B000AF78607B68222B01D90123F7
:101DD0002FE07B681F2B13D8184B9A6901217B6871
:101DE00001FA03F31A4001217B6801FA03F39A42D6
:101DF0001ED0124A01217B6801FA03F3136117E038
:101E00007B68203B7B600D4BD3F8082101217B6868
:101E100001FA03F31A4001217B6801FA03F39A42A5
:101E200006D0064A01217B6801FA03F3C2F80031AB
:101E3000002318460C37BD4680BC704700040E4096
:101E400080B582B000AF78607868034B984700BFD8
:101E50000837BD4680BD00BFC11D400080B500AF42
:101E60000B20034B98470C20014B984700BF80BDC7
:101E7000411E400080B500AF2C4B4FF400425A6029
:101E80002B4B98474FF000624FF0B07129482A4B16
:101E900098474FF0006218212648274B9847274B58
:101EA0003022C3F814214FF040510520244B9847AD
:101EB0004FF040510620224B98474FF040512420CC
:101EC0001F4B98474FF0405120201D4B98474FF033
:101ED000405121201A4B98474FF040512220184B77
:101EE000984718491920164B984716491A20144B41
:101EF000984714490C20124B984712490B20104B5D
:101F00009847104923200E4B98474FF04051252009
:101F10000B4B98474FF040511720094B98474FF013
:101F200040511420064B984700BF80BD50140E400E
:101F30005D1E4000000E0E40251A400000020E40BB
:101F4000751840000400002880B584B000AF274B0E
:101F5000FB60274BBB60FA68BB689A420DD907E06B
:101F6000BB681A1DBA60FA68111DF96012681A6020
:101F7000BB68204A9342F3D320E0FA68BB689A42D8
:101F80001CD21C4A1A4BD31A7B60FA687B68134434
:101F9000043BFB60BA687B681344043BBB600AE007
:101FA000BB681A1FBA60FA68111FF96012681A60DC
:101FB0007B68043B7B607B68002BF1D100BF0E4B3C
:101FC000BB6004E0BB681A1DBA6000221A60BB68DF
:101FD0000A4A9342F6D30A4BFB600A4AFB689360B5
:101FE000094B9847094B9847FEE700BFA0334000D4
:101FF0000000002038040020380400202C050020B8
:102000000000400000ED00E0193240001D234000B8
:1020100080B400AFFEE700BF80B400AF5D4B1B6B28
:1020200003F00303032B00F2968001A252F823F081
:102030004120400061204000AB204000AB20400028
:10204000554B5B6903F08003002B04D0534B4FF4D6
:1020500000421A6080E0514B4FF4FA421A607BE074
:102060004C4B1B6A03F08073002B03D04B4B4C4A44
:102070001A6071E0494B4B4A1A60464B1B6A03F0E9
:102080007003102B08D0202B0AD0002B00D00BE0BF
:10209000424B444A1A6007E0404B434A1A6003E04F
:1020A0003E4B3F4A1A6000BF56E03A4B1B6A03F0B2
:1020B0008073002B03D0394B394A1A6019E0374B33
:1020C000384A1A60334B1B6A03F07003102B08D098
:1020D000202B0AD0002B00D00BE0304B314A1A6085
:1020E00007E02E4B304A1A6003E02C4B2C4A1A6052
:1020F00000BF284B1B6B03F00303022B15D1254BAC
:102100009A6A2A4B13401B0C0133244A126802FBC3
:1021100003F3224A13601F4B9B6ADBB21F4A12680B
:10212000B2FBF3F31D4A136016E01A4BDA6A1F4B39
:1021300013401B0C0133194A126802FB03F3174AC0
:102140001360144BDB6ADBB2144A1268B2FBF3F380
:10215000124A136000E000BF0E4B1B6B03F07003CC
:10216000702B08D10D4B1B68114AA2FB03235B089F
:102170000A4A13600AE0074B1B6B03F070031B094C
:10218000064A126822FA03F3044A136000BFBD46F0
:1021900080BC704700040E4010140E400C0000205C
:1021A000001BB70000093D0000127A000000FF0785
:1021B000ABAAAAAA80B483B000AF78607B68184A43
:1021C000934204D8174B4FF080621A6023E07B687B
:1021D000154A934203D8134B144A1A601BE07B68DC
:1021E000134A934203D80F4B124A1A6013E07B68DC
:1021F000114A934203D80B4B104A1A600BE07B68DC
:102200000F4A934204D8074B4FF004221A6002E0B1
:10221000044B0C4A1A6000BF0C37BD4680BC7047A7
:10222000FF2C3101000A0E40FF5962020001000438
:10223000FF86930300020004FFB3C40400030004FC
:10224000FFE0F5050005000480B483B000AF7860BE
:102250007B68072B25D801A252F823F07D2240008D
:1022600083224000892240008F22400093224000B8
:10227000972240009B2240009F2240004FF4FA43E7
:1022800010E04FF400430DE04FF400430AE0084B28
:1022900008E0084B06E0084B04E0074B02E0064B61
:1022A00000E0002318460C37BD4680BC704700BFD5
:1022B00000093D0000127A00001BB70080B500AF96
:1022C0000620044B9847024613469B0013449B008C
:1022D000184680BD4922400080B500AF024B9847A8
:1022E00003465B08184680BDBD22400080B500AFA4
:1022F000024B984703465B08184680BDBD2240004C
:1023000080B582B000AF78607868034B984700BF13
:102310000837BD4680BD00BFC11D40002DE9F04813
:102320008EB002AF0023FB71002387F82F3000230B
:1023300087F82D304A4B4B4A1A604B4B00221A70DB
:102340004A4B98474A4B98474A4B98474A484B4B09
:10235000984749484A4B98474A4B232118464A4BCD
:1023600098474A4B9847034687F82D3097F82F3007
:10237000002B02D0012B0CD047E097F82D30002B1A
:1023800042D0012387F82F3097F82D3087F82E3070
:102390003AE097F82E2097F82D309A4204D097F81B
:1023A0002D3087F82E3030E03348394B9847394B81
:1023B0001B6801211846384B984707F1080197F828
:1023C0002D20FB1D00930B462E490120334CA047C6
:1023D000FB79002B06D0FA7907F10803114618465D
:1023E0002F4B98472448264B98472A4B1B680121BE
:1023F00018462C4B9847234B23211846224B9847CD
:10240000002387F82F3000E000BF274B9847274B69
:102410009847274B9847034619464FF000020B4652
:102420001446A60046EA93769D002B4634465B1878
:1024300044EB020443F2AF614FF0000213EB010BD7
:1024400044EB020C584661461A4C43F2B0624FF01E
:102450000003A04703460C461846174B984780E7F1
:10246000E8040020312540002905002029144000FF
:10247000751E4000BD24400000800240C906400097
:10248000F9064000FC040020AD0F4000E90F4000B9
:1024900011074000EC0400204115400031084000C5
:1024A000A9254000211540002D284000F9254000B5
:1024B000D9224000012F40000100002080B500AF6C
:1024C000044B9847044B98472220044B984700BF81
:1024D00080BD00BF950E4000E1244000451840003B
:1024E00080B584B000AF0C4B984703467B600B4B24
:1024F000BB6000233B7300237B731320084B98477A
:102500000848094B98473B1D19460648074B984712
:1025100000BF1037BD4680BDED224000801A060086
:102520000123400000800140290140004D0140008E
:1025300080B582B000AF78600B46FB701346BB706D
:1025400024E0FB780A2B00D01AE0144B9B8A03F09E
:102550000103002B03D01720114B984702E01720EE
:10256000104B98470D4B9B8A03F00203002B03D0BE
:1025700014200B4B984702E014200A4B984700BFE9
:10258000FB780133FB70BB78013BBB70BB78002B41
:10259000D7D100BF0837BD4680BD00BF580400201A
:1025A000151840004518400080B582B000AF786033
:1025B0000B46FB700B480C4B98477B68FA7892B23D
:1025C00011461846094B984700BF094B98470346E8
:1025D000002BFAD00348074B984700BF0837BD4689
:1025E00080BD00BF00800240B1064000710F400076
:1025F00021104000C90640002DE9904882B000AF8C
:102600004FF000037B6000237B807D4B1B78042B05
:1026100000F2F08001A252F823F000BF3126400002
:102620009B264000052740006F274000D927400027
:10263000744B1B781B021AB2724B5B781BB21343AC
:102640001BB27B802020704B984721206E4B98470F
:102650006E4B984703464FF0000443F2AF614FF0D2
:10266000000213EB010B44EB020C58466146684C28
:1026700043F2B0624FF00003A04703460C461846F1
:10268000644B9847644B01221A705D4B04221A7008
:1026900088216248624B9847ACE05A4B1B781B027A
:1026A0001AB2584B5B781BB213431BB27B802020BD
:1026B0005C4B98472120544B9847544B984703460E
:1026C0004FF0000443F2AF614FF0000213EB010B37
:1026D00044EB020C584661464D4C43F2B0624FF059
:1026E0000003A04703460C4618464A4B98474A4BFE
:1026F00002221A70424B04221A7088214748484B24
:10270000984777E03F4B1B781B021AB23D4B5B7832
:102710001BB213431BB27B8020203B4B98472120E8
:10272000404B9847394B984703464FF0000443F21B
:10273000AF614FF0000213EB010B44EB020C584663
:102740006146334C43F2B0624FF00003A0470346AA
:102750000C4618462F4B98472F4B03221A70284BD4
:1027600004221A7088212D482D4B984742E0254BB2
:102770001B781B021AB2234B5B781BB213431BB2AC
:102780007B802020274B98472120264B98471F4BC2
:10279000984703464FF0000443F2AF614FF0000248
:1027A00013EB010B44EB020C58466146184C43F204
:1027B000B0624FF00003A04703460C461846154B85
:1027C0009847154B00221A700D4B04221A7088216D
:1027D0001248134B98470DE00A491048124B98478E
:1027E000084B9B785BB2002B03DB0B4B1A78044B36
:1027F0001A7000BF00BF0837BD46BDE8908800BF13
:1028000029050020E404002045184000D92240009A
:10281000012F400001000020280500200080014019
:102820006D0D400015184000A10D400080B500AFAF
:10283000964B1B78072B00F2498301A252F823F034
:102840006128400029294000F1294000CF2A40009A
:10285000972B40005F2C40003B2D4000032E400092
:1028600019208B4B98470346002B07D0894B1B88B8
:1028700043F001039AB2874B1A8006E0854B1B8810
:1028800023F001039AB2834B1A801A20804B984799
:102890000346002B07D07F4B1B8843F480739AB20A
:1028A0007C4B1A8006E07B4B1B8823F480739AB222
:1028B000784B1A800C20764B98470346002B07D0A4
:1028C000744B5B8843F001039AB2724B5A8006E066
:1028D000704B5B8823F001039AB26E4B5A800B2039
:1028E0006B4B98470346002B07D06A4B5B8843F439
:1028F00080739AB2674B5A8006E0664B5B8823F47C
:1029000080739AB2634B5A800520634B9847062028
:10291000624B98472420614B98475C4B1B780133EE
:10292000DAB25A4B1A70DEE21920594B9847034627
:10293000002B07D0574B1B8843F002039AB2554B2C
:102940001A8006E0534B1B8823F002039AB2514BC6
:102950001A801A204E4B98470346002B07D04D4B48
:102960001B8843F400739AB24A4B1A8006E0494B25
:102970001B8823F400739AB2464B1A800C20444BF8
:1029800098470346002B07D0424B5B8843F0020375
:102990009AB2404B5A8006E03E4B5B8823F002031C
:1029A0009AB23C4B5A800B20394B98470346002B78
:1029B00007D0384B5B8843F400739AB2354B5A808A
:1029C00006E0344B5B8823F400739AB2314B5A8093
:1029D0000520324B984706202F4B984724202F4B39
:1029E00098472A4B1B780133DAB2284B1A707AE2E7
:1029F0001920274B98470346002B07D0254B1B88EF
:102A000043F004039AB2234B1A8006E0214B1B8843
:102A100023F004039AB21F4B1A801A201C4B9847CC
:102A20000346002B07D01B4B1B8843F480639AB2EC
:102A3000184B1A8006E0174B1B8823F480639AB268
:102A4000144B1A800C20124B98470346002B07D0DA
:102A5000104B5B8843F004039AB20E4B5A8006E099
:102A60000C4B5B8823F004039AB20A4B5A800B206C
:102A7000074B98470346002B12D0064B5B8843F464
:102A800080639AB2034B5A8011E000BFE704002034
:102A9000E517400058040020151840004518400074
:102AA000954B5B8823F480639AB2934B5A80052040
:102AB000924B98470620914B98472420904B98477B
:102AC000904B1B780133DAB28E4B1A700BE219204F
:102AD0008D4B98470346002B07D0874B1B8843F04C
:102AE00008039AB2844B1A8006E0834B1B8823F0BC
:102AF00008039AB2804B1A801A20834B98470346EA
:102B0000002B07D07C4B1B8843F400639AB27A4BAE
:102B10001A8006E0784B1B8823F400639AB2764B48
:102B20001A800C20784B98470346002B07D0724B35
:102B30005B8843F008039AB26F4B5A8006E06E4BF5
:102B40005B8823F008039AB26B4B5A800B206E4BC4
:102B500098470346002B07D0674B5B8843F400631C
:102B60009AB2654B5A8006E0634B5B8823F400639E
:102B70009AB2614B5A800520614B98470620604B02
:102B8000984724205D4B98475E4B1B780133DAB29F
:102B90005C4B1A70A7E119205B4B98470346002B4A
:102BA00007D0554B1B8843F010039AB2524B1A8042
:102BB00006E0514B1B8823F010039AB24E4B1A804B
:102BC0001A20514B98470346002B07D04A4B1B88CD
:102BD00043F480539AB2484B1A8006E0464B1B8858
:102BE00023F480539AB2444B1A800C20464B9847EA
:102BF0000346002B07D0404B5B8843F010039AB28A
:102C00003D4B5A8006E03C4B5B8823F010039AB2A0
:102C1000394B5A800B203C4B98470346002B07D07A
:102C2000354B5B8843F480539AB2334B5A8006E0AD
:102C3000314B5B8823F480539AB22F4B5A80052086
:102C40002E4B984706202E4B984724202B4B984715
:102C50002C4B1B780133DAB22A4B1A7043E119204E
:102C6000294B98470346002B07D0234B1B8843F082
:102C700020039AB2204B1A8006E01F4B1B8823F0DA
:102C800020039AB21C4B1A801A201F4B9847034608
:102C9000002B07D0184B1B8843F400539AB2164BF5
:102CA0001A8006E0144B1B8823F400539AB2124B8F
:102CB0001A800C20144B98470346002B07D00E4B6C
:102CC0005B8843F020039AB20B4B5A8006E00A4B14
:102CD0005B8823F020039AB2074B5A800B200A4BE3
:102CE00098470346002B11D0034B5B8843F40053F5
:102CF0009AB2014B5A8010E0580400201518400089
:102D000045184000E7040020E5174000774B5B883A
:102D100023F400539AB2754B5A800520744B9847A0
:102D20000620744B98472420724B9847724B1B78AF
:102D30000133DAB2704B1A70D5E019206F4B984707
:102D40000346002B07D0694B1B8843F040039AB21F
:102D5000664B1A8006E0654B1B8823F040039AB24D
:102D6000624B1A801A20654B98470346002B07D008
:102D70005E4B1B8843F480439AB25C4B1A8006E09A
:102D80005A4B1B8823F480439AB2584B1A800C206C
:102D90005A4B98470346002B07D0544B5B8843F0AF
:102DA00040039AB2514B5A8006E0504B5B8823F0A7
:102DB00040039AB24D4B5A800B20504B9847034624
:102DC000002B07D0494B5B8843F480439AB2474BB2
:102DD0005A8006E0454B5B8823F480439AB2434B0C
:102DE0005A800520434B98470620424B98472420A1
:102DF000404B9847404B1B780133DAB23E4B1A7078
:102E000071E019203D4B98470346002B07D0374B04
:102E10001B8843F080039AB2344B1A8006E0334B90
:102E20001B8823F080039AB2304B1A801A20334B50
:102E300098470346002B09D02C4B1B886FEA43436D
:102E40006FEA53439AB2294B1A8006E0274B1B883E
:102E5000C3F30E039AB2254B1A800C20274B9847D8
:102E60000346002B07D0214B5B8843F080039AB2C6
:102E70001E4B5A8006E01D4B5B8823F080039AB2FC
:102E80001A4B5A800B201D4B98470346002B09D044
:102E9000164B5B886FEA43436FEA53439AB2134B76
:102EA0005A8006E0114B5B88C3F30E039AB20F4BB6
:102EB0005A80114B00221A7005200D4B98470620AE
:102EC0000B4B984724200A4B98470CE00A4B0022F2
:102ED0001A700520064B98470620054B984724207A
:102EE000034B984700BF00BF80BD00BF58040020BF
:102EF0004518400015184000E7040020E517400081
:102F000053B94AB9002908BF00281CBF4FF0FF3150
:102F10004FF0FF3000F07EB9ADF1080C6DE904CE42
:102F200000F006F8DDF804E0DDE9022304B07047A4
:102F30002DE9F0478C460E460446089D002B50D1E3
:102F40008A4217466CD9B2FA82FEBEF1000F0BD04E
:102F5000CEF1200420FA04F401FA0EF644EA060C3D
:102F600002FA0EF700FA0EF44FEA1749220CBCFBE6
:102F7000F9F01FFA87F809FB10C642EA064600FB83
:102F800008F3B34209D9F61900F1FF3280F022812B
:102F9000B34240F21F8102383E44F61AA2B2B6FB99
:102FA000F9F309FB136642EA064403FB08F8A0455F
:102FB00009D9E41903F1FF3280F00A81A04540F2FB
:102FC0000781023B3C44C8EB040443EA0040002173
:102FD000002D62D024FA0EF400232C606B60BDE853
:102FE000F0878B4207D9002D55D0002185E841009C
:102FF0000846BDE8F087B3FA83F1002940F09080DD
:10300000B34202D3824200F2F880841A66EB0306D0
:103010000120B446002D40D085E81010BDE8F087AF
:1030200012B90127B7FBF2F7B7FA87FEBEF1000F1E
:1030300035D1F31B4FEA17481FFA87FC0121B3FB78
:10304000F8F0220C08FB103642EA06460CFB00F3AF
:10305000B34207D9F61900F1FF3202D2B34200F2AF
:10306000CE801046F61AA2B2B6FBF8F308FB136640
:1030700042EA06440CFB03FCA44507D9E41903F11A
:10308000FF3202D2A44500F2B5801346CCEB040413
:1030900043EA00409CE729462846BDE8F087CEF188
:1030A000200106FA0EF307FA0EF720FA01F94FEAAB
:1030B0001748CE4049EA0309B6FBF8FA4FEA19442B
:1030C00008FB1A661FFA87FC44EA06430AFB0CF267
:1030D0009A4200FA0EF40AD9DB190AF1FF3180F0A6
:1030E00087809A4240F28480AAF1020A3B449B1AEC
:1030F0001FFA89F9B3FBF8F108FB113349EA0343DE
:1031000001FB0CF69E4207D9DB1901F1FF326BD2AD
:103110009E4269D902393B449B1B41EA0A418EE732
:10312000C1F1200E22FA0EF48B40234320FA0EF751
:1031300006FA01F44FEA134C26FA0EF63C43B6FBAE
:10314000FCF9270C0CFB19661FFA83F847EA0646C0
:1031500009FB08F7B74202FA01F200FA01FA08D9AE
:10316000F61809F1FF3041D2B7423FD9A9F102095F
:103170001E44F61BA0B2B6FBFCF40CFB146640EA3E
:10318000064704FB08F8B84507D9FF1804F1FF30DB
:1031900028D2B84526D9023C1F4444EA0940C8EB6E
:1031A0000707A0FB02894F4544464E4614D329D059
:1031B00065B3BAEB040367EB060707FA0EFECB40D4
:1031C000CF404EEA030385E888000021BDE8F08780
:1031D0001346F8E61046E0E6B8EB020469EB030696
:1031E0000138E5E70446D8E7114695E78146C0E790
:1031F0008A467CE7023B3C4448E708460AE7023837
:103200003E442FE7C245E7D33E46D1E72946BDE815
:10321000F08700BF704700BF70B50F4E0F4D761B93
:10322000B61018BF002405D0013455F8043B984768
:10323000A642F9D10A4E0B4D761B00F09BF8B61052
:1032400018BF002406D0013455F8043B9847A64225
:10325000F9D170BD70BD00BF8033400080334000A5
:103260008833400080334000024B13B1024800F025
:1032700005B8704700000000893240000023014675
:103280001A46184600F014B838B5074D074C2C1BE9
:10329000A41005D0013C55F8043D9847002CF9D105
:1032A000BDE8384000F070B89833400094334000D7
:1032B0002DE9F047254C2568D5F848410646884653
:1032C00092469946C4B360681F2817DC431C76B148
:1032D00004EB80050122C5F888A0D4F8881182404B
:1032E0001143022EC4F88811C5F808911ED002308F
:1032F000636044F820800020BDE8F087144B03B3DE
:103300004FF4C870AFF300800446D0B1D5F848310F
:10331000002780E88800C5F8484138460123C4F8F2
:103320008871C4F88C71002EE1D0D1E7D4F88C11EB
:103330000A43C4F88C21DAE705F5A674C5F84841BC
:10334000C1E74FF0FF30BDE8F08700BF70334000A9
:103350000000000080250000C00000000008000000
:10336000000000000000000000000000430000001A
:1033700010000020F8B500BFF8BC08BC9E4670479E
:1033800069324000F1004000F8B500BFF8BC08BC4D
:083390009E467047CD0040008D
:0833980098FBFF7F010000001B
:1033A000BFF35F8F0138FBD1704700BF00093D00BC
:1033B00000000000FC02002064030020CC03002079
:1033C00000000000000000000000000000000000FD
:1033D00000000000000000000000000000000000ED
:1033E000000000006C3340000000000000000000FE
:1033F00000000000000000000000000000000000CD
:1034000000000000000000000000000000000000BC
:1034100000000000000000000000000000000000AC
:10342000000000000000000000000000000000009C
:10343000000000000000000000000000000000008C
:10344000000000000000000000000000000000007C
:10345000000000000000000001000000000000006B
:103460000E33CDAB34126DE6ECDE05000B00000030
:10347000000000000000000000000000000000004C
:10348000000000000000000000000000000000003C
:10349000000000000000000000000000000000002C
:1034A000000000000000000000000000000000001C
:0400000500401F494F
:00000001FF
