:020000040040BA
:10000000C8340020210340001D0340001D034000B0
:100010001D0340001D0340001D03400000000000C0
:100020000000000000000000000000001D03400070
:100030001D034000000000001D0340001D034000A0
:100040001D0340001D0340001D0340001D03400030
:100050001D0340001D0340001D0340001D03400020
:100060001D0340001D0340000000000091014000FE
:10007000A5014000B90140001D0340001D034000E0
:1000800000000000000000001D0340001D034000B0
:100090001D0340001D0340001D0340001D034000E0
:1000A0001D0340001D0340001D0340001D034000D0
:1000B0001D0340001D0340001D0340001D034000C0
:1000C0001D0340001D0340001D03400010B5054CFA
:1000D000237833B9044B13B10448AFF300800123F4
:1000E000237010BD3004002000000000EC0640002A
:1000F000084B10B51BB108490848AFF30080084809
:10010000036803B910BD074B002BFBD0BDE81040BE
:10011000184700BF0000000034040020EC06400037
:10012000EC064000000000002DE9F84381468846B7
:10013000124B984705464846114B9847054013D047
:10014000104C04F160062368434508D161682942D8
:1001500005D0E36840469847636825EA0305B44242
:1001600002D01034002DEED1074B1B6823B1074B92
:100170001B680BB148469847BDE8F8833102400040
:100180003502400050040020C00400204C04002030
:1001900008B50B210148024B984708BD000E0E40E0
:1001A0002901400008B50C210148024B984708BDC1
:1001B00000100E402901400008B50D210148024BF6
:1001C000984708BD00120E402901400010B50E48A6
:1001D0000E4B984700200E4B98470E4CA047002826
:1001E000FCD00D4B98470D4A0D4B9A620D4CA04721
:1001F0000028FCD000200C4B98470C4B9847024835
:10020000024B984710BD00BF000E2707E5044000D1
:10021000A1024000ED024000FD024000013F1D2010
:1002200000040E400D03400039024000D10340009D
:10023000C06C7047806C7047184A136B23F07003D2
:1002400018431063936E13F0080F03D009E0013BCD
:1002500003D11EE04FF4006310498A6E12F0080FBC
:10026000F5D00E4A136B23F0030343F0020313632C
:10027000906E10F0080004D000207047013B03D1BD
:1002800009E04FF4006305498A6E12F0080FF5D0BB
:100290007047012070470120704700BF00040E40E6
:1002A000114B1A6A42F45C1242F008021A621A46B2
:1002B000936E13F4003FFBD00B4A136A23F45C13D4
:1002C00023F0700343F45C1303431362936E13F43F
:1002D000003FFBD0044A136A23F09B7323F480335E
:1002E00043F45C131362704700040E40024B986E97
:1002F00000F48030704700BF00040E404FF0005201
:10030000014B9A62704700BF00040E40024B986E8A
:1003100000F00200704700BF00040E40FEE700BF7F
:1003200008B5204B204A9A4212D9204B1D4A9A42C6
:100330001ED21146013B9B1A23F0030304331A4AD1
:10034000134452F8040B41F8040B9A42F9D10FE020
:10035000144B154A9A420BD2144B124A9A1A14485B
:1003600011182AB151F8042943F8042D8142F9D11A
:1003700000BF104B104A9A420BD2131D0F4AD21ADB
:1003800022F003021A44043B002143F8041B9A4262
:10039000FBD10B4B0B4A9A600B4B98470B4B984782
:1003A000FEE700BF00000020EC0640003004002003
:1003B000E8064000C404002030040020C7040020E8
:1003C00000ED00E000004000850540007905400098
:1003D0003D4B1B6B03F00303032B5DD8DFE803F0F9
:1003E000020E2B2B394B5B6913F0800F14BF4FF4B7
:1003F00000424FF4FA42364B1A604DE0324B1B6A12
:1004000013F0807F03D0334A314B1A6044E0324A04
:100410002F4B1A602C4B1B6A03F07003102B02D079
:10042000202B04D038E02D4A294B1A6034E0294AA9
:10043000274B1A6030E0244B1B6A13F0807F03D0F7
:10044000244A234B1A6012E0234A214B1A601E4BA8
:100450001B6A03F07003102B02D0202B04D006E09F
:100460001E4A1B4B1A6002E01A4A194B1A60164BBF
:100470001B6B03F00303022B134A07BF936A926AB4
:10048000D36AD26A1248C3F30A41036801FB0333FB
:10049000D2B2B3FBF2F303600B4B1B6B03F07003A0
:1004A000702B07D10A4A13680D49A1FB03135B089F
:1004B00013607047044B1B6B0549C3F302120B68B2
:1004C000D3400B60704700BF00040E4010140E4074
:1004D00000000020001BB70000093D0000127A0058
:1004E000ABAAAAAA1A4B984207D84FF08063194AC0
:1004F000136002F5007213607047174B984206D8DC
:10050000164B144A136002F5007213607047144BC7
:10051000984206D8134B0F4A136002F5007213601D
:100520007047114B984206D8104B0A4A136002F5E7
:100530000072136070470E4B984294BF4FF0042333
:100540000C4B044A136002F500721360704700BF41
:10055000FF2C3101000A0E40FF5962020001000425
:10056000FF86930300020004FFB3C40400030004E9
:10057000FFE0F5050005000408B5014B9847FEE7CC
:10058000CD01400070B50F4E0F4D761BB61018BF51
:10059000002405D0013455F8043B9847A642F9D110
:1005A0000A4E0B4D761B00F08FF8B61018BF0024D2
:1005B00006D0013455F8043B9847A642F9D170BDE6
:1005C00070BD00BFD4064000D4064000DC064000E9
:1005D000D4064000024B13B1024800F005B8704742
:1005E00000000000F5054000002301461A461846A9
:1005F00000F014B838B5074D074C2C1BA41005D0DB
:10060000013C55F8043D9847002CF9D1BDE838402D
:1006100000F064B8EC064000E80640002DE9F04721
:10062000254C2568D5F848410646884692469946A5
:10063000C4B360681F2817DC431C76B104EB800547
:100640000122C5F888A0D4F8881182401143022EF7
:10065000C4F88811C5F808911ED00230636044F8D0
:1006600020800020BDE8F087144B03B34FF4C8701E
:10067000AFF300800446D0B1D5F84831002780E8B8
:100680008800C5F8484138460123C4F88871C4F889
:100690008C71002EE1D0D1E7D4F88C110A43C4F854
:1006A0008C21DAE705F5A674C5F84841C1E74FF09B
:1006B000FF30BDE8F08700BFC40640000000000026
:1006C0004300000008000020F8B500BFF8BC08BCDB
:1006D0009E467047D5054000F1004000F8B500BFC8
:0C06E000F8BC08BC9E467047CD004000EE
:1006EC0000093D000000000000000000F4020020A2
:1006FC005C030020C4030020000000000000000088
:10070C0000000000000000000000000000000000DD
:10071C00000000000000000000000000C0064000C7
:10072C0000000000000000000000000000000000BD
:10073C0000000000000000000000000000000000AD
:10074C00000000000000000000000000000000009D
:10075C00000000000000000000000000000000008D
:10076C00000000000000000000000000000000007D
:10077C00000000000000000000000000000000006D
:10078C00000000000000000000000000000000005D
:10079C0001000000000000000E33CDAB34126DE6FA
:1007AC00ECDE05000B000000000000000000000063
:1007BC00000000000000000000000000000000002D
:1007CC00000000000000000000000000000000001D
:1007DC00000000000000000000000000000000000D
:1007EC0000000000000000000000000000000000FD
:040000050040032193
:00000001FF
