:020000040040BA
:10000000687300207D1440004515400045154000F0
:100010004515400045154000451540000000000012
:100020000000000000000000000000004515400036
:1000300045154000000000004515400045154000F2
:100040004515400045154000451540004515400048
:100050004515400045154000451540004515400038
:100060004515400045154000000000006D074000A8
:10007000850740009D07400045154000AD05400044
:10008000000000000000000045154000451540003C
:1000900045154000451540004515400045154000F8
:1000A00045154000451540004515400045154000E8
:1000B00045154000451540004515400045154000D8
:1000C00045154000451540004515400010B5054C4C
:1000D000237833B9044B13B10448AFF300800123F4
:1000E000237010BD4004002000000000C41D40002B
:1000F000084B10B51BB108490848AFF30080084809
:10010000036803B910BD074B002BFBD0BDE81040BE
:10011000184700BF0000000044040020C41D400038
:10012000C41D40000000000080B489B000AFF8603A
:10013000B9607A60BB681A017B689A4202D81023C2
:10014000FB6101E00823FB617B68DA00FB69B968A9
:1001500001FB03F35B081A44FB69B96801FB03F375
:10016000B2FBF3F3BB61BB69DB087B61BB6903F0E6
:1001700007033B617B69002B03D07B69B3F5803FAC
:1001800001D301230FE0FB69082B05D1FB685B68F5
:1001900043F40022FB685A603B691A047B691A43E6
:1001A000FB681A62002318462437BD4680BC70479E
:1001B00080B582B000AF786078680F4B98477B6855
:1001C00000225A607B6800225A627B6800229A6291
:1001D00078680A4B98477868094B98477868094BC4
:1001E00098477868084B98477868084B984700BF4D
:1001F0000837BD4680BD00BF05044000ED02400049
:100200001D03400069034000A10340008503400036
:1002100080B584B000AFF860B9607A60F8681A4BB6
:1002200098471A4B00221A60BB68002B09D0BB68A4
:100230001B687A681946F868154B98470346002BE7
:1002400001D001231BE0BB685A68BB689B681A4356
:10025000BB681B691A43BB68DB681A430B4B1B68FE
:1002600013430A4A1360094B1B68084A1360FB6872
:100270005A68064B1B681A43FB685A6000231846ED
:100280001037BD4680BD00BFB10140005C040020B6
:100290002901400080B584B000AFF860B9607A6091
:1002A0007A68B968F8680A4B98470346002B01D072
:1002B000012308E0FB685B6823F00F0343F00102B1
:1002C000FB685A60002318461037BD4680BD00BF4A
:1002D0001102400080B483B000AF78607B68402298
:1002E0001A6000BF0C37BD4680BC704780B483B035
:1002F00000AF78607B6888221A6000BF0C37BD466B
:1003000080BC704780B483B000AF78607B681022F7
:100310001A6000BF0C37BD4680BC704780B483B004
:1003200000AF78607B6824221A6000BF0C37BD469E
:1003300080BC704780B483B000AF786039607B6860
:100340003A68DA6000BF0C37BD4680BC704700BF1A
:1003500080B483B000AF78607B685B6918460C3767
:10036000BD4680BC704700BF80B483B000AF7860EA
:100370007B684FF480721A6000BF0C37BD4680BCAA
:10038000704700BF80B483B000AF78607B684FF4E3
:1003900000321A6000BF0C37BD4680BC704700BFFA
:1003A00080B483B000AF78607B684FF400221A609D
:1003B00000BF0C37BD4680BC704700BF80B485B01D
:1003C00000AF78600023FB607B680A4A934203D148
:1003D000094BFB60FB6808E07B68084A934203D145
:1003E000074BFB60FB6800E0FB6818461437BD460E
:1003F00080BC704700400240004102400080024043
:100400000081024080B483B000AF78607B68044A0A
:10041000C3F8E42000BF0C37BD4680BC704700BF66
:100420000041535580B483B000AF0346FB710949C6
:1004300097F907305B09FA7902F01F02012000FAF0
:1004400002F2603341F8232000BF0C37BD4680BC68
:10045000704700BF00E100E080B483B000AF786077
:100460007B68072B25D801A252F823F08D044000A9
:1004700093044000990440009F044000A3044000FE
:10048000A7044000AB044000AF0440004FF4FA431F
:1004900010E04FF400430DE04FF400430AE0084B36
:1004A00008E0084B06E0084B04E0074B02E0064B6F
:1004B00000E0002318460C37BD4680BC704700BFE3
:1004C00000093D0000127A00001BB70080B500AFA4
:1004D0000320044B9847024613461B019B1A5B00FE
:1004E000184680BD5904400080B500AF024B9847C4
:1004F0000346184680BD00BFCD04400080B582B0E1
:1005000000AF78607868034B984700BF0837BD4656
:1005100080BD00BFDD134000B0B586B000AF184B02
:100520003C461D460FCD0FC495E8030084E8030048
:100530000F20144B9847144B984702463B461946E8
:100540001248134B98474FF0FF311048114B984712
:100550000E48114B98470D48104B98470B48104BCD
:10056000984702460F4B1A600E4B1B6840F2011170
:1005700018460D4B984700BF1837BD46B0BD00BFA9
:10058000781D4000FD044000E90440000080024066
:100590009502400035034000D502400005034000AD
:1005A000BD034000D4040020950B400080B582B00C
:1005B00000AF0F200F4B98470F4B1B6818460F4B8F
:1005C00098470F480F4B984778607B6803F0080303
:1005D000002B03D00C4B01221A7007E07B6803F05C
:1005E0001003002B02D0094B01221A7000BF0837FC
:1005F000BD4680BD25044000D4040020B50B40005A
:1006000000800240510340000D0000200C0000203B
:1006100080B582B000AF78600B467B807B68094A6A
:1006200013607B88074A5360074B1B68002205490B
:100630001846064B9847064B00221A7000BF083731
:10064000BD4680BDD8040020D40400200D0B40001E
:100650000C00002080B582B000AF78600B467B8034
:100660007B68094A13607B88074A5360074B1B6805
:10067000002205491846064B9847064B00221A707F
:1006800000BF0837BD4680BDD8040020D404002038
:10069000510B40000D00002080B584B000AF7860A1
:1006A000396078682C4B9847F86078682B4B9847EE
:1006B0000246FB681340FB60FB68002B3CD0002324
:1006C000BB6034E0264ABB681B0113441A683B68D0
:1006D0009A4226D1224ABB681B01134404331A688C
:1006E000FB681340002B1CD01D4ABB681B01134440
:1006F0000C331B681A49BA6812010A441068184979
:10070000BA6812010A440432126811469847144A22
:10071000BB681B01134404331B68DB43FA681340B6
:10072000FB60BB680133BB60BB68062B03D8FB686A
:10073000002BC7D100E000BF0A4B1B68002B07D07D
:10074000094B1B68002B03D0074B1B687868984740
:1007500000BF1037BD4680BD090E4000210E40008D
:1007600060040020E0040020D004002080B500AF29
:100770000B210248024B984700BF80BD000E0E407F
:100780009906400080B500AF0C210248024B984703
:1007900000BF80BD00100E409906400080B500AF3C
:1007A0000D210248024B984700BF80BD00120E4049
:1007B0009906400080B582B000AF78607B68072B57
:1007C00031D801A252F823F025084000E907400083
:1007D000F1074000F9074000010840000908400007
:1007E000110840001B0840000020114B98471AE0F8
:1007F00001200F4B984716E000200E4B984712E05F
:1008000010200C4B98470EE020200A4B98470AE036
:100810003E210020084B984705E03E210120064B71
:10082000984700E000BF00BF0837BD4680BD00BF4D
:10083000111240007D124000ED12400080B582B0E0
:1008400000AF78607B68072B26D801A252F823F00E
:100850007108400075084000750840008708400096
:10086000870840008708400087084000870840004C
:10087000012312E00B4B98470346002B14BF0123C2
:100880000023DBB209E0084B98470346002B14BF56
:1008900001230023DBB200E0002318460837BD46E1
:1008A00080BD00BF491240006513400080B483B092
:1008B00000AF78607B68072B25D801A252F823F09F
:1008C000E1084000E7084000ED084000F308400060
:1008D000F7084000FB084000FF0840000309400003
:1008E0004FF4FA4310E04FF400430DE04FF400439F
:1008F0000AE0084B08E0084B06E0084B04E0074B11
:1009000002E0064B00E0002318460C37BD4680BCD1
:10091000704700BF00093D0000127A00001BB700BD
:1009200080B582B000AF0346FB7100BFFB7918466B
:10093000054B9847034683F00103DBB2002BF5D14A
:1009400000BF0837BD4680BD3D08400080B586B079
:1009500000AFF8607A603B600B46FB72FB7A18468A
:100960000D4B984702467B68B2FBF3F37B617B69D2
:100970003A6802FB03F37B613B68013B1A04074BB7
:1009800013407A68D2B2134343F47C52FB681A6076
:1009900000BF1837BD4680BDAD0840000000FF070E
:1009A00080B582B000AF786039603B68002B08D119
:1009B000094B9847094A7B681B6843F000539362D0
:1009C00005E0074B9847054A7B681B68D36200BF68
:1009D0000837BD4680BD00BF7D13400000040E40B7
:1009E000AD13400080B582B000AF78607B68002B0B
:1009F00003D1054B9847034602E0044B9847034652
:100A000018460837BD4680BD95134000C513400009
:100A100080B582B000AF0346FB71FB79033B042B2A
:100A200008D8FB791846064B9847FB791846054BC2
:100A3000984700E000BF00BF0837BD4680BD00BF3B
:100A4000B50740002109400080B582B000AF786052
:100A500000BF7868044B98470346002BF9D0002369
:100A600018460837BD4680BDE509400080B500AF97
:100A70000320044B9847024613461B019B1A5B0058
:100A8000184680BDAD08400080B500AF024B9847C6
:100A90000346184680BD00BF6D0A400090B583B084
:100AA00000AF1148114B98470320114B9847381D50
:100AB0001E23012203210F4CA0473B1D0021184695
:100AC0000D4B984700200D4B984700200C4B984742
:100AD0000C4B98470C4B984703461846034B9847D6
:100AE00000BF0C37BD4690BD000E2707E916400039
:100AF000110A40004D094000A1094000490A400088
:100B0000911140004D154000890A400080B485B025
:100B100000AFF860B9607A60BB68002B07D0BB6893
:100B20001A68FB689A60BB685A68FB68DA607B6881
:100B3000002B07D07B681A68FB689A617B685A684B
:100B4000FB68DA6100BF1437BD4680BC704700BF48
:100B500080B485B000AFF860B9607A60BB68002BE4
:100B600007D0BB681A68FB681A60BB685A68FB68E4
:100B70005A607B68002B07D07B681A68FB681A6193
:100B80007B685A68FB685A6100BF1437BD4680BC59
:100B9000704700BF80B483B000AF786039603A68B6
:100BA00040F2011313407A68136200BF0C37BD4650
:100BB00080BC704780B483B000AF78607B685B6AAC
:100BC00018460C37BD4680BC704700BF80B485B066
:100BD00000AFF860B9607A607B68002B03D0FB68D7
:100BE000BA685A6602E0FB68BA681A6600BF143732
:100BF000BD4680BC704700BF80B487B000AFF860CE
:100C0000B9607A60FB687A685A64BB68B3F1C05F08
:100C10004AD0B3F1C05F08D8B3F1006F16D0B3F17A
:100C2000805F2CD0002B69D064E0B3F1205F65D0E9
:100C3000B3F1205F03D8B3F1005F4AD05AE0B3F1BB
:100C4000405F5BD0B3F1605F58D053E0FB681B6F2F
:100C50007B61FB681A6F7B68D9437B690B401A4044
:100C6000FB681A67FB685B6F7B61FB685A6F7B6888
:100C7000D9437B690B401A40FB685A673AE0FB682E
:100C80001B6F7B617A687B691A43FB681A67FB6894
:100C90005B6F7B61FB685A6F7B68D9437B690B4054
:100CA0001A40FB685A6725E0FB681B6F7B61FB6895
:100CB0001A6F7B68D9437B690B401A40FB681A673F
:100CC000FB685B6F7B617A687B691A43FB685A67D4
:100CD00010E0FB681B6F7B617A687B691A43FB68D5
:100CE0001A67FB685B6F7B617A687B691A43FB68F4
:100CF0005A6700BFFB687A685A6000E000BF1C3783
:100D0000BD4680BC704700BF80B584B000AFF860BE
:100D1000B9607A60B968F868194B98477B6803F046
:100D200001031A46B968F868164B98477B6803F0C8
:100D30000A03002B03D0FB68BA681A6202E0FB6862
:100D4000BA685A627B6803F00203002B04D0FB6888
:100D5000BA68C3F8802008E07B6803F00803002B22
:100D600003D0FB68BA68C3F88420FB68BA685A618C
:100D7000FB68BA681A6000BF1037BD4680BD00BF6F
:100D8000ED0D4000CD0B400080B584B000AFF860A1
:100D9000B9607A603B60B968F868124B9847BA69E5
:100DA000B968F868104B98473B68002B03D0FB6884
:100DB000BA681A6502E0FB68BA685A657B68002B5E
:100DC00003D0FB68BA681A6302E0FB68BA685A632A
:100DD000FB68BA681A61FB68BA681A6000BF10370E
:100DE000BD4680BDED0D4000CD0B400080B483B00A
:100DF00000AF786039607B683A685A6400BF0C378E
:100E0000BD4680BC704700BF80B483B000AF78603F
:100E10007B68DB6C18460C37BD4680BC704700BF52
:100E200080B483B000AF78607B689B6C18460C3749
:100E3000BD4680BC704700BF80B584B000AF78600D
:100E40007868124B9847F860FB689B6B7A6802F0F1
:100E50001F02012101FA02F21340002B09D07B6826
:100E600003F01F03012202FA03F31A46FB685A63D8
:100E700008E07B6803F01F03012202FA03F31A461D
:100E8000FB681A6300BF1037BD4680BD6D1140007E
:100E900090B587B002AF786039607868634B984747
:100EA000F8603B6803F0F043B3F1005F67D0B3F143
:100EB000005F09D8B3F1805F2BD0B3F1C05F43D09E
:100EC000B3F1006F0AD0A9E0B3F1405F7ED0B3F177
:100ED000605F7BD0B3F1205F6CD09FE07B6803F054
:100EE0001F03012202FA03F31A464FF00061F8686B
:100EF0004F4B98477B6803F01F03012202FA03F36C
:100F000019463B6803F001031A46F868494B9847B5
:100F100086E07B6803F01F03012202FA03F31A46FE
:100F20004FF08051F868424B98477B6803F01F03ED
:100F3000012202FA03F319463B6803F001031A4643
:100F4000F8683C4B98476BE07B6803F01F03012275
:100F500002FA03F31A464FF0C051F868344B984731
:100F60007B6803F01F03012202FA03F319463B6872
:100F700003F001031A46F8682E4B984750E07B684F
:100F800003F01F03012202FA03F31A464FF0005147
:100F9000F868274B98477B6803F01F03012202FA89
:100FA00003F319463B6803F001031A46F868214B26
:100FB000984735E07B6803F01F03012202FA03F330
:100FC0003A681946F8681C4B984729E07B6803F09B
:100FD0001F03012202FA03F319463B6803F0605332
:100FE000B3F1605F0CBF01230023DBB21A463B68FC
:100FF00003F00403002B14BF01230023DBB21846C7
:101000003B6803F00103002B14BF01230023DBB274
:1010100000930346F868094CA04701E0002300E074
:10102000012318461437BD4690BD00BF6D11400026
:10103000F90B4000CD0B4000090D4000890D400028
:1010400090B587B002AFF860B9607A607B6803F052
:10105000F043B3F1005F43D0B3F1005F09D8B3F1BF
:10106000805F1FD0B3F1C05F2BD0B3F1006F0AD007
:101070006DE0B3F1405F48D0B3F1605F45D0B3F1AC
:10108000205F3CD063E0BA684FF00061F868334BF2
:1010900098477B6803F001031A46B968F868304B3B
:1010A000984756E0BA684FF08051F8682B4B984744
:1010B0007B6803F001031A46B968F868284B984723
:1010C00047E0BA684FF0C051F868244B98477B68F6
:1010D00003F001031A46B968F868214B984738E0D5
:1010E000BA684FF00051F8681C4B98477B6803F0D2
:1010F00001031A46B968F868194B984729E07A68DD
:10110000B968F868174B984723E07B6803F0605391
:10111000B3F1605F0CBF01230023DBB21A467B688A
:1011200003F00403002B14BF01230023DBB2194694
:101130007B6803F00103002B14BF01230023DBB203
:1011400000930B46B968F868074CA04701E00023FC
:1011500000E0012318461437BD4690BDF90B40004E
:10116000CD0B4000090D4000890D400080B485B0D2
:1011700000AF78607B685B0903F5001303F2077327
:101180005B02FB60FB6818461437BD4680BC7047A5
:1011900080B485B000AF78601C491C4B1B6B23F0FA
:1011A00070027B6813430B634FF40063FB6007E03E
:1011B000FB68002B01D1012323E0FB68013BFB60AE
:1011C000124B9B6E03F00803002BF1D00F4A0F4B1C
:1011D0001B6B23F0030343F0020313634FF400631C
:1011E000FB6007E0FB68002B01D1012309E0FB68ED
:1011F000013BFB60054B9B6E03F00803002BF1D015
:10120000002318461437BD4680BC704700040E40CA
:1012100080B483B000AF78607B68012B07D1084AA7
:10122000074B9B6843F0254343F480139360044BC2
:10123000044A1A6000BF0C37BD4680BC704700BF2F
:1012400010140E40080000A580B400AF094B5B6984
:1012500003F08003002B07D0074B9B6E03F0800345
:10126000002B01D0012300E000231846BD4680BCBE
:10127000704700BF10140E4000040E4080B483B0CD
:1012800000AF7860184A184B1B6A43F45C1343F0B4
:101290000803136200BF144B9B6E03F40033002B52
:1012A000F9D01149104B1B6A23F45C1323F070032F
:1012B0007A68134343F45C130B6200BF0A4B9B6EC6
:1012C00003F40033002BF9D0074A074B1B6A23F0C5
:1012D0009B7323F4803343F45C13136200BF0C3719
:1012E000BD4680BC704700BF00040E4080B483B090
:1012F00000AF786039607B68002B08D01649164B28
:101300001B6A164A1A40164B13430B621EE0124921
:10131000114B1B6A23F45C1323F003033A68120297
:1013200092B2134343F45C1343F001030B6200BF1A
:10133000094B9B6E03F00103002BF9D0064A064BC4
:101340001B6A43F09B7343F48033136200BF0C3776
:10135000BD4680BC704700BF00040E40FCFFC8FEC5
:101360000200370180B400AF034B9B6E03F480335F
:101370001846BD4680BC704700040E4080B400AFE4
:10138000034B4FF000529A6200BFBD4680BC7047CD
:1013900000040E4080B400AF034B9B6E03F00203C9
:1013A0001846BD4680BC704700040E4080B400AFB4
:1013B000034B0022DA6200BFBD4680BC704700BF0D
:1013C00000040E4080B400AF034B9B6E03F0040397
:1013D0001846BD4680BC704700040E4080B483B000
:1013E00000AF78607B68222B01D901232FE07B6856
:1013F0001F2B13D8184B9A6901217B6801FA03F35C
:101400001A4001217B6801FA03F39A421ED0124A66
:1014100001217B6801FA03F3136117E07B68203B2D
:101420007B600D4BD3F8082101217B6801FA03F39F
:101430001A4001217B6801FA03F39A4206D0064A5A
:1014400001217B6801FA03F3C2F80031002318463A
:101450000C37BD4680BC704700040E4080B500AF1D
:101460004FF000624FF0B0710248034B984700BF45
:1014700080BD00BF000E0E404110400080B584B01A
:1014800000AF274BFB60274BBB60FA68BB689A42F2
:101490000DD907E0BB681A1DBA60FA68111DF96022
:1014A00012681A60BB68204A9342F3D320E0FA68BE
:1014B000BB689A421CD21C4A1A4BD31A7B60FA684A
:1014C0007B681344043BFB60BA687B681344043BAD
:1014D000BB600AE0BB681A1FBA60FA68111FF960A6
:1014E00012681A607B68043B7B607B68002BF1D13B
:1014F00000BF0E4BBB6004E0BB681A1DBA6000223F
:101500001A60BB680A4A9342F6D30A4BFB600A4A48
:10151000FB689360094B9847094B9847FEE700BF6B
:10152000C41D4000000000204004002040040020B2
:10153000644300200000400000ED00E03D1C40003E
:101540004D18400080B400AFFEE700BF80B400AF8C
:101550005D4B1B6B03F00303032B00F2968001A28B
:1015600052F823F07515400095154000DF15400036
:10157000DF154000554B5B6903F08003002B04D05E
:10158000534B4FF400421A6080E0514B4FF4FA4243
:101590001A607BE04C4B1B6A03F08073002B03D076
:1015A0004B4B4C4A1A6071E0494B4B4A1A60464B10
:1015B0001B6A03F07003102B08D0202B0AD0002BDD
:1015C00000D00BE0424B444A1A6007E0404B434ACC
:1015D0001A6003E03E4B3F4A1A6000BF56E03A4BA8
:1015E0001B6A03F08073002B03D0394B394A1A6011
:1015F00019E0374B384A1A60334B1B6A03F070030B
:10160000102B08D0202B0AD0002B00D00BE0304B41
:10161000314A1A6007E02E4B304A1A6003E02C4B27
:101620002C4A1A6000BF284B1B6B03F00303022BEC
:1016300015D1254B9A6A2A4B13401B0C0133244ABF
:10164000126802FB03F3224A13601F4B9B6ADBB252
:101650001F4A1268B2FBF3F31D4A136016E01A4BDF
:10166000DA6A1F4B13401B0C0133194A126802FB44
:1016700003F3174A1360144BDB6ADBB2144A126897
:10168000B2FBF3F3124A136000E000BF0E4B1B6B7A
:1016900003F07003702B08D10D4B1B68114AA2FB9D
:1016A00003235B080A4A13600AE0074B1B6B03F035
:1016B00070031B09064A126822FA03F3044A1360F6
:1016C00000BFBD4680BC704700040E4010140E40A1
:1016D00010000020001BB70000093D0000127A0036
:1016E0000000FF07ABAAAAAA80B483B000AF78605D
:1016F0007B68224A934208D8214B4FF080621A60DF
:10170000204B4FF080621A6033E07B681E4A9342A0
:1017100006D81B4B1D4A1A601A4B1C4A1A6028E057
:101720007B681B4A934206D8154B1A4A1A60154B20
:10173000184A1A601DE07B68174A934206D8104B7E
:10174000164A1A600F4B154A1A6012E07B68144A59
:10175000934208D80A4B4FF004221A60094B4FF00D
:1017600004221A6005E0064B0E4A1A60054B0D4A2A
:101770001A6000BF0C37BD4680BC7047FF2C31019A
:10178000000A0E40000C0E40FF59620200010004E6
:10179000FF86930300020004FFB3C40400030004A7
:1017A000FFE0F5050005000480B483B000AF786069
:1017B0007B68072B25D801A252F823F0DD174000E3
:1017C000E3174000E9174000EF174000F31740000F
:1017D000F7174000FB174000FF1740004FF4FA4393
:1017E00010E04FF400430DE04FF400430AE0084BD3
:1017F00008E0084B06E0084B04E0074B02E0064B0C
:1018000000E0002318460C37BD4680BC704700BF7F
:1018100000093D0000127A00001BB70080B500AF40
:101820000320044B9847024613461B019B1A5B009A
:10183000184680BDA917400080B500AF024B9847FD
:101840000346184680BD00BF1D1840002DE9F84F23
:1018500000AF284B9847284B9847284B98474FF0A4
:1018600060515720264B9847264B4D221A60012184
:101870002548264B984701212248254B9847572059
:10188000244B9847244B9847034618464FF00001D5
:1018900002460B464FEA830B4BEA927B4FEA820AE1
:1018A00052465B465D0145EAD2655401A41A65EBD8
:1018B0000305241845EB01054FEAC50949EA5479A7
:1018C0004FEAC40844464D462046294643F2AF62DB
:1018D0004FF00003801841EB0301104E43F2B06259
:1018E0004FF00003B04702460B46134618460C4B18
:1018F0009847C4E79D0A40005D1440001905400068
:10190000910E400024240020E404002055064000ED
:1019100011064000390E40003918400025194000DA
:101920000100002053B94AB9002908BF00281CBF94
:101930004FF0FF314FF0FF3000F07EB9ADF1080CF1
:101940006DE904CE00F006F8DDF804E0DDE90223DD
:1019500004B070472DE9F0478C460E460446089DBA
:10196000002B50D18A4217466CD9B2FA82FEBEF1E2
:10197000000F0BD0CEF1200420FA04F401FA0EF689
:1019800044EA060C02FA0EF700FA0EF44FEA174981
:10199000220CBCFBF9F01FFA87F809FB10C642EADB
:1019A000064600FB08F3B34209D9F61900F1FF32ED
:1019B00080F02281B34240F21F8102383E44F61A81
:1019C000A2B2B6FBF9F309FB136642EA064403FB35
:1019D00008F8A04509D9E41903F1FF3280F00A8123
:1019E000A04540F20781023B3C44C8EB040443EAB3
:1019F00000400021002D62D024FA0EF400232C6058
:101A00006B60BDE8F0878B4207D9002D55D00021CF
:101A100085E841000846BDE8F087B3FA83F1002964
:101A200040F09080B34202D3824200F2F880841AE0
:101A300066EB03060120B446002D40D085E8101067
:101A4000BDE8F08712B90127B7FBF2F7B7FA87FEB6
:101A5000BEF1000F35D1F31B4FEA17481FFA87FC80
:101A60000121B3FBF8F0220C08FB103642EA0646CF
:101A70000CFB00F3B34207D9F61900F1FF3202D292
:101A8000B34200F2CE801046F61AA2B2B6FBF8F3CB
:101A900008FB136642EA06440CFB03FCA44507D985
:101AA000E41903F1FF3202D2A44500F2B5801346D7
:101AB000CCEB040443EA00409CE729462846BDE8F5
:101AC000F087CEF1200106FA0EF307FA0EF720FA9E
:101AD00001F94FEA1748CE4049EA0309B6FBF8FA84
:101AE0004FEA194408FB1A661FFA87FC44EA0643CA
:101AF0000AFB0CF29A4200FA0EF40AD9DB190AF139
:101B0000FF3180F087809A4240F28480AAF1020A75
:101B10003B449B1A1FFA89F9B3FBF8F108FB113318
:101B200049EA034301FB0CF69E4207D9DB1901F198
:101B3000FF326BD29E4269D902393B449B1B41EA7A
:101B40000A418EE7C1F1200E22FA0EF48B402343A6
:101B500020FA0EF706FA01F44FEA134C26FA0EF6B5
:101B60003C43B6FBFCF9270C0CFB19661FFA83F803
:101B700047EA064609FB08F7B74202FA01F200FA03
:101B800001FA08D9F61809F1FF3041D2B7423FD91E
:101B9000A9F102091E44F61BA0B2B6FBFCF40CFB33
:101BA000146640EA064704FB08F8B84507D9FF1851
:101BB00004F1FF3028D2B84526D9023C1F4444EA3C
:101BC0000940C8EB0707A0FB02894F4544464E4633
:101BD00014D329D065B3BAEB040367EB060707FA01
:101BE0000EFECB40CF404EEA030385E8880000217B
:101BF000BDE8F0871346F8E61046E0E6B8EB0204CD
:101C000069EB03060138E5E70446D8E7114695E796
:101C10008146C0E78A467CE7023B3C4448E70846E9
:101C20000AE702383E442FE7C245E7D33E46D1E7F4
:101C30002946BDE8F08700BF704700BF70B50F4E62
:101C40000F4D761BB61018BF002405D0013455F88F
:101C5000043B9847A642F9D10A4E0B4D761B00F083
:101C60009BF8B61018BF002406D0013455F8043B89
:101C70009847A642F9D170BD70BD00BFA41D4000B9
:101C8000A41D4000AC1D4000A41D4000024B13B138
:101C9000024800F005B8704700000000AD1C40008D
:101CA000002301461A46184600F014B838B5074D0F
:101CB000074C2C1BA41005D0013C55F8043D984757
:101CC000002CF9D1BDE8384000F070B8BC1D4000D0
:101CD000B81D40002DE9F047254C2568D5F848414E
:101CE0000646884692469946C4B360681F2817DCAA
:101CF000431C76B104EB80050122C5F888A0D4F816
:101D0000881182401143022EC4F88811C5F8089149
:101D10001ED00230636044F820800020BDE8F087C8
:101D2000144B03B34FF4C870AFF300800446D0B136
:101D3000D5F84831002780E88800C5F84841384682
:101D40000123C4F88871C4F88C71002EE1D0D1E76A
:101D5000D4F88C110A43C4F88C21DAE705F5A6748F
:101D6000C5F84841C1E74FF0FF30BDE8F08700BF3C
:101D7000941D40000000000080250000C00000000D
:101D8000000800000000000000000000000000004B
:101D90004300000018000020F8B500BFF8BC08BCE4
:101DA0009E4670478D1C4000F1004000F8B500BF12
:0C1DB000F8BC08BC9E467047CD00400007
:081DBC0098FBFF7F010000000D
:101DC400BFF35F8F0138FBD1704700BF01010000F2
:101DD40000093D0000000000000000000403002092
:101DE4006C030020D4030020000000000000000069
:101DF40000000000000000000000000000000000DF
:101E0400000000000000000000000000901D4000E1
:101E140000000000000000000000000000000000BE
:101E240000000000000000000000000000000000AE
:101E3400000000000000000000000000000000009E
:101E4400000000000000000000000000000000008E
:101E5400000000000000000000000000000000007E
:101E6400000000000000000000000000000000006E
:101E7400000000000000000000000000000000005E
:101E840001000000000000000E33CDAB34126DE6FB
:101E9400ECDE05000B000000000000000000000064
:101EA400000000000000000000000000000000002E
:101EB400000000000000000000000000000000001E
:101EC400000000000000000000000000000000000E
:101ED40000000000000000000000000000000000FE
:040000050040147D26
:00000001FF
