:020000040040BA
:10000000D83400207D074000790740007907400080
:1000100079074000790740007907400000000000A0
:100020000000000000000000000000007907400010
:100030007907400000000000790740007907400080
:1000400079074000790740007907400079074000B0
:1000500079074000790740007907400079074000A0
:10006000790740007907400000000000AD03400020
:10007000C1034000D5034000110340007907400050
:1000800000000000000000007907400079074000F0
:100090007907400079074000790740007907400060
:1000A0007907400079074000790740007907400050
:1000B0007907400079074000790740007907400040
:1000C00079074000790740007907400010B5054CDA
:1000D000237833B9044B13B10448AFF300800123F4
:1000E000237010BD3004002000000000700B4000A1
:1000F000084B10B51BB108490848AFF30080084809
:10010000036803B910BD074B002BFBD0BDE81040BE
:10011000184700BF0000000034040020700B4000AE
:10012000700B40000000000010B40C0194420FD985
:100130001AE0416841F400214160120402F4E02217
:100140001A43026200201CE001201AE0012018E09E
:10015000630803EBC202B2FBF4F2D3085C1E4FF655
:10016000FE718C42E9D9EFE7C9004B0803EBC202EC
:10017000B2FBF1F2D3085C1E4FF6FE718C42E5D85B
:10018000D7E710BC704700BF0A4BC0F8E43000232B
:1001900043604362836288230360242303604FF437
:1001A000807303604FF4002303604FF40033036057
:1001B000704700BF0041535570B505460C461646C2
:1001C0000F4B984700220F4B1A609CB132462168B2
:1001D00028460D4B9847024670B96168A3681943D9
:1001E00023691943E3680B4306490B6069680B43B5
:1001F0006B6002E0012200E00122104670BD00BFEA
:10020000890140004C0400202901400010B504463B
:10021000064B984738B90246636823F00F0343F052
:100220000103636000E00122104610BDB9014000E7
:1002300040230360704700BF10230360704700BF76
:1002400081607047C160704740697047064B9842B3
:1002500007D003F58243054A90420CBF18460020A0
:1002600070470348704700BF0040024000800240D2
:100270000041024030B587B06C46184D0FCD0FC419
:1002800095E8030084E803000E20154B9847154CB1
:10029000154A69462046154B98474FF0FF312046D6
:1002A000134B98472046134B98472046124B9847CC
:1002B0004FF48042114B1A602046114B9847114B66
:1002C000186040F20111104B9847082120460F4D4D
:1002D000A84710212046A84707B030BD2C0B40008E
:1002E0000D07400000400240000E27070D024000AD
:1002F00045024000310240003902400000E100E0C8
:100300004D024000C40400204D0440004102400062
:1003100008B50848084B984710F0080F03D0012291
:10032000064B1A7008BD10F0100F02D00122044BCA
:100330001A7008BD00400240490240000100002040
:10034000000000202DE9F84381468846124B98476B
:1003500005464846114B9847054013D0104C04F110
:1003600060062368434508D16168294205D0E368E7
:1003700040469847636825EA0305B44202D010342A
:10038000002DEED1074B1B6823B1074B1B680BB147
:1003900048469847BDE8F8834505400049054000B8
:1003A00054040020D00400205004002008B50B2184
:1003B0000148024B984708BD000E0E40450340001F
:1003C00008B50C210148024B984708BD00100E40AB
:1003D0004503400008B50D210148024B984708BD70
:1003E00000120E404503400010B50E480E4B9847D2
:1003F00000200E4B98470E4CA0470028FCD00D4B18
:1004000098470D4A0D4B9A620D4CA0470028FCD02E
:1004100000200C4B98470C4B98470248024B9847DA
:1004200010BD00BF000E27074109400091064000A3
:10043000DD064000ED064000013F1D2000040E4097
:10044000FD064000290640002D08400021F0FE0175
:10045000C905C90D016270474264B1F1C05F2FD078
:1004600007D8B1F1006F14D0B1F1805F1ED039B957
:100470007047B1F1205F36D004D8B1F1005F29D0C8
:1004800042607047B1F1405F2DD0B1F1605F2AD07A
:10049000F6E710B4046F016FD343214019400167A0
:1004A000446F416F21400B4043671AE0036F1343D1
:1004B0000367416F436F0B4023EA02034367DFE7A3
:1004C000016F036F0B4023EA02030367436F13437B
:1004D0004367D5E7036F13430367436F13434367D2
:1004E000CEE7426010BC7047416412F0010F14BFA8
:1004F0004166016612F00A0F14BF0162416212F0F8
:10050000020F02D0C0F8801004E012F0080F18BFEC
:10051000C0F8841041610160704700BF10B44164AD
:10052000019C0CB1416600E001660BB1016500E081
:1005300041650AB1016300E041630161016010BCE3
:10054000704700BFC06C7047806C704770B582B058
:1005500005460E46144602F0F043B3F1005F38D072
:1005600009D8B3F1805F1CD0B3F1C05F25D0B3F1DF
:10057000006F50D109E0B3F1405F3AD0B3F1605F52
:1005800037D0B3F1205F30D045E00A464FF000612C
:10059000224B984714F0010F14BF6E662E6601209F
:1005A0003AE00A464FF080511C4B984714F0010F77
:1005B00014BF6E662E6601202EE00A464FF0C05131
:1005C000164B984714F0010F14BF6E662E6601207B
:1005D00022E00A464FF00051104B984714F0010FEB
:1005E00014BF6E662E66012016E00D4B9847012061
:1005F00012E004F0605204F001030093C4F380039E
:10060000B2F1605F14BF0022012231462846054C3A
:10061000A047012000E0002002B070BD5904400056
:10062000E90440001D054000184A136B23F07003D5
:1006300018431063936E13F0080F03D009E0013BD9
:1006400003D11EE04FF4006310498A6E12F0080FC8
:10065000F5D00E4A136B23F0030343F00203136338
:10066000906E10F0080004D000207047013B03D1C9
:1006700009E04FF4006305498A6E12F0080FF5D0C7
:100680007047012070470120704700BF00040E40F2
:10069000114B1A6A42F45C1242F008021A621A46BE
:1006A000936E13F4003FFBD00B4A136A23F45C13E0
:1006B00023F0700343F45C1303431362936E13F44B
:1006C000003FFBD0044A136A23F09B7323F480336A
:1006D00043F45C131362704700040E40024B986EA3
:1006E00000F48030704700BF00040E404FF000520D
:1006F000014B9A62704700BF00040E40024B986E97
:1007000000F00200704700BF00040E4022281ED8EF
:100710001F280CD8114B9A6901238340934318D0AA
:10072000012303FA00F00D4B1861002070472038B8
:100730000A4BD3F808210123834093430BD00123B4
:1007400003FA00F0054BC3F80001002070470120B8
:100750007047002070470020704700BF00040E4023
:1007600008B54FF00062E0210148024B984708BDF0
:10077000000E0E404D054000FEE700BF08B5204BBF
:10078000204A9A4212D9204B1D4A9A421ED2114643
:10079000013B9B1A23F0030304331A4A134452F813
:1007A000040B41F8040B9A42F9D10FE0144B154A9F
:1007B0009A420BD2144B124A9A1A144811182AB1B1
:1007C00051F8042943F8042D8142F9D100BF104BA0
:1007D000104A9A420BD2131D0F4AD21A22F003027A
:1007E0001A44043B002143F8041B9A42FBD10B4BF3
:1007F0000B4A9A600B4B98470B4B9847FEE700BF9C
:1008000000000020700B4000300400206C0B400002
:10081000D404002030040020D704002000ED00E0C4
:1008200000004000F1094000D50940003D4B1B6B22
:1008300003F00303032B5DD8DFE803F0020E2B2B3C
:10084000394B5B6913F0800F14BF4FF400424FF433
:10085000FA42364B1A604DE0324B1B6A13F0807F30
:1008600003D0334A314B1A6044E0324A2F4B1A60AE
:100870002C4B1B6A03F07003102B02D0202B04D0EA
:1008800038E02D4A294B1A6034E0294A274B1A6078
:1008900030E0244B1B6A13F0807F03D0244A234BA3
:1008A0001A6012E0234A214B1A601E4B1B6A03F0A8
:1008B0007003102B02D0202B04D006E01E4A1B4BE5
:1008C0001A6002E01A4A194B1A60164B1B6B03F0B0
:1008D0000303022B134A07BF936A926AD36AD26A50
:1008E0001248C3F30A41036801FB0333D2B2B3FBDE
:1008F000F2F303600B4B1B6B03F07003702B07D1FB
:100900000A4A13680D49A1FB03135B081360704783
:10091000044B1B6B0549C3F302120B68D3400B60F9
:10092000704700BF00040E4010140E400400002069
:10093000001BB70000093D0000127A00ABAAAAAA6A
:100940001A4B984207D84FF08063194A136002F59A
:10095000007213607047174B984206D8164B144A22
:10096000136002F5007213607047144B984206D86A
:10097000134B0F4A136002F5007213607047114B5E
:10098000984206D8104B0A4A136002F500721360B1
:1009900070470E4B984294BF4FF004230C4B044A0F
:1009A000136002F500721360704700BFFF2C310125
:1009B000000A0E40FF59620200010004FF86930303
:1009C00000020004FFB3C40400030004FFE0F505C7
:1009D0000005000408B5034B9847034B9847034BA9
:1009E0009847FEE7E90340006107400075024000B8
:1009F00070B50F4E0F4D761BB61018BF002405D0F2
:100A0000013455F8043B9847A642F9D10A4E0B4DE4
:100A1000761B00F09BF8B61018BF002406D00134F6
:100A200055F8043B9847A642F9D170BD70BD00BF90
:100A3000580B4000580B4000600B4000580B400022
:100A4000024B13B1024800F005B8704700000000E7
:100A5000610A4000002301461A46184600F014B807
:100A600038B5074D074C2C1BA41005D0013C55F898
:100A7000043D9847002CF9D1BDE8384000F070B82B
:100A8000700B40006C0B40002DE9F047254C2568A9
:100A9000D5F848410646884692469946C4B36068F0
:100AA0001F2817DC431C76B104EB80050122C5F832
:100AB00088A0D4F8881182401143022EC4F888110E
:100AC000C5F808911ED00230636044F820800020F1
:100AD000BDE8F087144B03B34FF4C870AFF3008048
:100AE0000446D0B1D5F84831002780E88800C5F821
:100AF000484138460123C4F88871C4F88C71002E2F
:100B0000E1D0D1E7D4F88C110A43C4F88C21DAE79C
:100B100005F5A674C5F84841C1E74FF0FF30BDE8C0
:100B2000F08700BF480B4000000000008025000057
:100B3000C0000000000800000000000000000000ED
:100B4000000000004300000008000020F8B500BFCE
:100B5000F8BC08BC9E467047410A4000F1004000C6
:100B6000F8B500BFF8BC08BC9E467047CD004000F9
:100B70000101000000093D0000000000F402002017
:100B80005C030020C40300200000000000000000FF
:100B90000000000000000000000000000000000055
:100BA000000000000000000000000000440B4000B6
:100BB0000000000000000000000000000000000035
:100BC0000000000000000000000000000000000025
:100BD0000000000000000000000000000000000015
:100BE0000000000000000000000000000000000005
:100BF00000000000000000000000000000000000F5
:100C000000000000000000000000000000000000E4
:100C100000000000000000000000000000000000D4
:100C200001000000000000000E33CDAB34126DE671
:100C3000ECDE05000B0000000000000000000000DA
:100C400000000000000000000000000000000000A4
:100C50000000000000000000000000000000000094
:100C60000000000000000000000000000000000084
:100C70000000000000000000000000000000000074
:040000050040077D33
:00000001FF
